{
  "contractName": "TokenFarm",
  "abi": [
    {
      "inputs": [
        {
          "internalType": "contract DappToken",
          "name": "_dappToken",
          "type": "address"
        },
        {
          "internalType": "contract DaiToken",
          "name": "_daiToken",
          "type": "address"
        }
      ],
      "stateMutability": "nonpayable",
      "type": "constructor"
    },
    {
      "inputs": [],
      "name": "daiToken",
      "outputs": [
        {
          "internalType": "contract DaiToken",
          "name": "",
          "type": "address"
        }
      ],
      "stateMutability": "view",
      "type": "function",
      "constant": true
    },
    {
      "inputs": [],
      "name": "dappToken",
      "outputs": [
        {
          "internalType": "contract DappToken",
          "name": "",
          "type": "address"
        }
      ],
      "stateMutability": "view",
      "type": "function",
      "constant": true
    },
    {
      "inputs": [
        {
          "internalType": "address",
          "name": "",
          "type": "address"
        }
      ],
      "name": "hasStaked",
      "outputs": [
        {
          "internalType": "bool",
          "name": "",
          "type": "bool"
        }
      ],
      "stateMutability": "view",
      "type": "function",
      "constant": true
    },
    {
      "inputs": [
        {
          "internalType": "address",
          "name": "",
          "type": "address"
        }
      ],
      "name": "isStaking",
      "outputs": [
        {
          "internalType": "bool",
          "name": "",
          "type": "bool"
        }
      ],
      "stateMutability": "view",
      "type": "function",
      "constant": true
    },
    {
      "inputs": [],
      "name": "owner",
      "outputs": [
        {
          "internalType": "address",
          "name": "",
          "type": "address"
        }
      ],
      "stateMutability": "view",
      "type": "function",
      "constant": true
    },
    {
      "inputs": [
        {
          "internalType": "uint256",
          "name": "",
          "type": "uint256"
        }
      ],
      "name": "stakers",
      "outputs": [
        {
          "internalType": "address",
          "name": "",
          "type": "address"
        }
      ],
      "stateMutability": "view",
      "type": "function",
      "constant": true
    },
    {
      "inputs": [
        {
          "internalType": "address",
          "name": "",
          "type": "address"
        }
      ],
      "name": "stakingBalance",
      "outputs": [
        {
          "internalType": "uint256",
          "name": "",
          "type": "uint256"
        }
      ],
      "stateMutability": "view",
      "type": "function",
      "constant": true
    },
    {
      "inputs": [],
      "name": "test",
      "outputs": [
        {
          "internalType": "string",
          "name": "",
          "type": "string"
        }
      ],
      "stateMutability": "view",
      "type": "function",
      "constant": true
    },
    {
      "inputs": [
        {
          "internalType": "uint256",
          "name": "_amount",
          "type": "uint256"
        }
      ],
      "name": "stakeTokens",
      "outputs": [],
      "stateMutability": "nonpayable",
      "type": "function"
    },
    {
      "inputs": [],
      "name": "unstakeTokens",
      "outputs": [],
      "stateMutability": "nonpayable",
      "type": "function"
    },
    {
      "inputs": [],
      "name": "issueTokens",
      "outputs": [],
      "stateMutability": "nonpayable",
      "type": "function"
    }
  ],
  "bytecode": "0x60806040526040518060400160405280600581526020017f68656c6c6f000000000000000000000000000000000000000000000000000000815250600090805190602001906200005192919062000150565b503480156200005f57600080fd5b50604051620014723803806200147283398181016040528101906200008591906200022e565b81600160006101000a81548173ffffffffffffffffffffffffffffffffffffffff021916908373ffffffffffffffffffffffffffffffffffffffff16021790555080600260006101000a81548173ffffffffffffffffffffffffffffffffffffffff021916908373ffffffffffffffffffffffffffffffffffffffff16021790555033600360006101000a81548173ffffffffffffffffffffffffffffffffffffffff021916908373ffffffffffffffffffffffffffffffffffffffff16021790555050506200036f565b8280546200015e90620002d1565b90600052602060002090601f016020900481019282620001825760008555620001ce565b82601f106200019d57805160ff1916838001178555620001ce565b82800160010185558215620001ce579182015b82811115620001cd578251825591602001919060010190620001b0565b5b509050620001dd9190620001e1565b5090565b5b80821115620001fc576000816000905550600101620001e2565b5090565b60008151905062000211816200033b565b92915050565b600081519050620002288162000355565b92915050565b6000806040838503121562000248576200024762000336565b5b6000620002588582860162000217565b92505060206200026b8582860162000200565b9150509250929050565b60006200028282620002b1565b9050919050565b6000620002968262000275565b9050919050565b6000620002aa8262000275565b9050919050565b600073ffffffffffffffffffffffffffffffffffffffff82169050919050565b60006002820490506001821680620002ea57607f821691505b6020821081141562000301576200030062000307565b5b50919050565b7f4e487b7100000000000000000000000000000000000000000000000000000000600052602260045260246000fd5b600080fd5b620003468162000289565b81146200035257600080fd5b50565b62000360816200029d565b81146200036c57600080fd5b50565b6110f3806200037f6000396000f3fe608060405234801561001057600080fd5b50600436106100a95760003560e01c80638da5cb5b116100715780638da5cb5b14610152578063a5ce413b14610170578063be22f5461461017a578063c93c8f3414610198578063f8a8fd6d146101c8578063fd5e6dd1146101e6576100a9565b806345bc78ab146100ae5780635eb186f8146100de57806360ab5852146100fc5780636f49712b146101065780637547c7a314610136575b600080fd5b6100c860048036038101906100c39190610aa7565b610216565b6040516100d59190610d69565b60405180910390f35b6100e661022e565b6040516100f39190610ccc565b60405180910390f35b610104610254565b005b610120600480360381019061011b9190610aa7565b61044d565b60405161012d9190610c96565b60405180910390f35b610150600480360381019061014b9190610b01565b61046d565b005b61015a610758565b6040516101679190610c1b565b60405180910390f35b61017861077e565b005b610182610955565b60405161018f9190610cb1565b60405180910390f35b6101b260048036038101906101ad9190610aa7565b61097b565b6040516101bf9190610c96565b60405180910390f35b6101d061099b565b6040516101dd9190610ce7565b60405180910390f35b61020060048036038101906101fb9190610b01565b610a29565b60405161020d9190610c1b565b60405180910390f35b60046020528060005260406000206000915090505481565b600160009054906101000a900473ffffffffffffffffffffffffffffffffffffffff1681565b600360009054906101000a900473ffffffffffffffffffffffffffffffffffffffff1673ffffffffffffffffffffffffffffffffffffffff163373ffffffffffffffffffffffffffffffffffffffff16146102e4576040517f08c379a00000000000000000000000000000000000000000000000000000000081526004016102db90610d29565b60405180910390fd5b60005b60078054905081101561044a5760006007828154811061030a57610309610f92565b5b9060005260206000200160009054906101000a900473ffffffffffffffffffffffffffffffffffffffff1690506000600460008373ffffffffffffffffffffffffffffffffffffffff1673ffffffffffffffffffffffffffffffffffffffff168152602001908152602001600020549050600081111561043557600160009054906101000a900473ffffffffffffffffffffffffffffffffffffffff1673ffffffffffffffffffffffffffffffffffffffff1663a9059cbb83836040518363ffffffff1660e01b81526004016103e1929190610c6d565b602060405180830381600087803b1580156103fb57600080fd5b505af115801561040f573d6000803e3d6000fd5b505050506040513d601f19601f820116820180604052508101906104339190610ad4565b505b5050808061044290610eeb565b9150506102e7565b50565b60066020528060005260406000206000915054906101000a900460ff1681565b600081116104b0576040517f08c379a00000000000000000000000000000000000000000000000000000000081526004016104a790610d09565b60405180910390fd5b600260009054906101000a900473ffffffffffffffffffffffffffffffffffffffff1673ffffffffffffffffffffffffffffffffffffffff166323b872dd3330846040518463ffffffff1660e01b815260040161050f93929190610c36565b602060405180830381600087803b15801561052957600080fd5b505af115801561053d573d6000803e3d6000fd5b505050506040513d601f19601f820116820180604052508101906105619190610ad4565b5080600460003373ffffffffffffffffffffffffffffffffffffffff1673ffffffffffffffffffffffffffffffffffffffff168152602001908152602001600020546105ad9190610da0565b600460003373ffffffffffffffffffffffffffffffffffffffff1673ffffffffffffffffffffffffffffffffffffffff16815260200190815260200160002081905550600560003373ffffffffffffffffffffffffffffffffffffffff1673ffffffffffffffffffffffffffffffffffffffff16815260200190815260200160002060009054906101000a900460ff166106a5576007339080600181540180825580915050600190039060005260206000200160009091909190916101000a81548173ffffffffffffffffffffffffffffffffffffffff021916908373ffffffffffffffffffffffffffffffffffffffff1602179055505b6001600560003373ffffffffffffffffffffffffffffffffffffffff1673ffffffffffffffffffffffffffffffffffffffff16815260200190815260200160002060006101000a81548160ff0219169083151502179055506001600660003373ffffffffffffffffffffffffffffffffffffffff1673ffffffffffffffffffffffffffffffffffffffff16815260200190815260200160002060006101000a81548160ff02191690831515021790555050565b600360009054906101000a900473ffffffffffffffffffffffffffffffffffffffff1681565b6000600460003373ffffffffffffffffffffffffffffffffffffffff1673ffffffffffffffffffffffffffffffffffffffff16815260200190815260200160002054905060008111610805576040517f08c379a00000000000000000000000000000000000000000000000000000000081526004016107fc90610d49565b60405180910390fd5b600260009054906101000a900473ffffffffffffffffffffffffffffffffffffffff1673ffffffffffffffffffffffffffffffffffffffff1663a9059cbb33836040518363ffffffff1660e01b8152600401610862929190610c6d565b602060405180830381600087803b15801561087c57600080fd5b505af1158015610890573d6000803e3d6000fd5b505050506040513d601f19601f820116820180604052508101906108b49190610ad4565b506000600460003373ffffffffffffffffffffffffffffffffffffffff1673ffffffffffffffffffffffffffffffffffffffff168152602001908152602001600020819055506000600660003373ffffffffffffffffffffffffffffffffffffffff1673ffffffffffffffffffffffffffffffffffffffff16815260200190815260200160002060006101000a81548160ff02191690831515021790555050565b600260009054906101000a900473ffffffffffffffffffffffffffffffffffffffff1681565b60056020528060005260406000206000915054906101000a900460ff1681565b600080546109a890610eb9565b80601f01602080910402602001604051908101604052809291908181526020018280546109d490610eb9565b8015610a215780601f106109f657610100808354040283529160200191610a21565b820191906000526020600020905b815481529060010190602001808311610a0457829003601f168201915b505050505081565b60078181548110610a3957600080fd5b906000526020600020016000915054906101000a900473ffffffffffffffffffffffffffffffffffffffff1681565b600081359050610a7781611078565b92915050565b600081519050610a8c8161108f565b92915050565b600081359050610aa1816110a6565b92915050565b600060208284031215610abd57610abc610fc1565b5b6000610acb84828501610a68565b91505092915050565b600060208284031215610aea57610ae9610fc1565b5b6000610af884828501610a7d565b91505092915050565b600060208284031215610b1757610b16610fc1565b5b6000610b2584828501610a92565b91505092915050565b610b3781610df6565b82525050565b610b4681610e08565b82525050565b610b5581610e3e565b82525050565b610b6481610e50565b82525050565b6000610b7582610d84565b610b7f8185610d8f565b9350610b8f818560208601610e86565b610b9881610fc6565b840191505092915050565b6000610bb0601a83610d8f565b9150610bbb82610fd7565b602082019050919050565b6000610bd3601e83610d8f565b9150610bde82611000565b602082019050919050565b6000610bf6602183610d8f565b9150610c0182611029565b604082019050919050565b610c1581610e34565b82525050565b6000602082019050610c306000830184610b2e565b92915050565b6000606082019050610c4b6000830186610b2e565b610c586020830185610b2e565b610c656040830184610c0c565b949350505050565b6000604082019050610c826000830185610b2e565b610c8f6020830184610c0c565b9392505050565b6000602082019050610cab6000830184610b3d565b92915050565b6000602082019050610cc66000830184610b4c565b92915050565b6000602082019050610ce16000830184610b5b565b92915050565b60006020820190508181036000830152610d018184610b6a565b905092915050565b60006020820190508181036000830152610d2281610ba3565b9050919050565b60006020820190508181036000830152610d4281610bc6565b9050919050565b60006020820190508181036000830152610d6281610be9565b9050919050565b6000602082019050610d7e6000830184610c0c565b92915050565b600081519050919050565b600082825260208201905092915050565b6000610dab82610e34565b9150610db683610e34565b9250827fffffffffffffffffffffffffffffffffffffffffffffffffffffffffffffffff03821115610deb57610dea610f34565b5b828201905092915050565b6000610e0182610e14565b9050919050565b60008115159050919050565b600073ffffffffffffffffffffffffffffffffffffffff82169050919050565b6000819050919050565b6000610e4982610e62565b9050919050565b6000610e5b82610e62565b9050919050565b6000610e6d82610e74565b9050919050565b6000610e7f82610e14565b9050919050565b60005b83811015610ea4578082015181840152602081019050610e89565b83811115610eb3576000848401525b50505050565b60006002820490506001821680610ed157607f821691505b60208210811415610ee557610ee4610f63565b5b50919050565b6000610ef682610e34565b91507fffffffffffffffffffffffffffffffffffffffffffffffffffffffffffffffff821415610f2957610f28610f34565b5b600182019050919050565b7f4e487b7100000000000000000000000000000000000000000000000000000000600052601160045260246000fd5b7f4e487b7100000000000000000000000000000000000000000000000000000000600052602260045260246000fd5b7f4e487b7100000000000000000000000000000000000000000000000000000000600052603260045260246000fd5b600080fd5b6000601f19601f8301169050919050565b7f6c612063616e7469646164206e6f207075656465207365722030000000000000600082015250565b7f456c2071756520656e76696520646562652073657220656c206f776e65720000600082015250565b7f42616c616e6365206465207374616b696e67206e6f207075656465207365722060008201527f3000000000000000000000000000000000000000000000000000000000000000602082015250565b61108181610df6565b811461108c57600080fd5b50565b61109881610e08565b81146110a357600080fd5b50565b6110af81610e34565b81146110ba57600080fd5b5056fea2646970667358221220157a1a875946b1a4c871cc5ebe81f76b5b56a8690b9ba4560cbd897bc463301c64736f6c63430008070033",
  "immutableReferences": {},
  "source": "// SPDX-License-Identifier: MIT\r\npragma solidity ^0.8.7;\r\nimport \"./DaiToken.sol\";\r\nimport \"./DappToken.sol\";\r\n\r\ncontract TokenFarm {\r\n\r\n    string public test = \"hello\";\r\n\r\n    DappToken public dappToken;\r\n    DaiToken public daiToken;\r\n    address public owner;\r\n\r\n    mapping (address => uint) public stakingBalance;\r\n    mapping(address => bool) public hasStaked;\r\n    mapping (address => bool) public isStaking;\r\n\r\n    address[] public stakers;\r\n\r\n    constructor(DappToken _dappToken, DaiToken _daiToken) public {\r\n        dappToken = _dappToken;\r\n        daiToken = _daiToken;\r\n        owner= msg.sender;\r\n    }\r\n\r\n    // 1. Stake tokens deposito de DAI para ganar DAPP\r\n    function stakeTokens(uint _amount) public {\r\n        \r\n        require(_amount > 0, \"la cantidad no puede ser 0\");\r\n\r\n        // transferr \r\n        daiToken.transferFrom(msg.sender, address(this), _amount);\r\n        // Actualizar balance de staking\r\n        stakingBalance[msg.sender] = stakingBalance[msg.sender] + _amount;\r\n\r\n        //Agregar a lista de stakers si es nuevo\r\n        if(!hasStaked[msg.sender]) {\r\n            stakers.push(msg.sender);\r\n        }\r\n\r\n        hasStaked[msg.sender] = true;\r\n        isStaking[msg.sender] = true;\r\n    }\r\n\r\n    // 2. Unstaking tokens sacar dinero de la app\r\n    function unstakeTokens() public {\r\n        uint balance = stakingBalance[msg.sender];\r\n\r\n        require(balance > 0, \"Balance de staking no puede ser 0\");\r\n\r\n        daiToken.transfer(msg.sender, balance);\r\n        stakingBalance[msg.sender] = 0;\r\n\r\n        isStaking[msg.sender] = false;\r\n        \r\n    }\r\n\r\n    //3. Emitiendo tokens, tokens ganados como interes\r\n    function issueTokens() public{\r\n        require(msg.sender == owner, \"El que envie debe ser el owner\");\r\n\r\n        for(uint i=0; i<stakers.length; i++){\r\n            address recipient = stakers[i];\r\n            uint balance = stakingBalance[recipient];\r\n\r\n            if(balance > 0) {\r\n                dappToken.transfer(recipient, balance);\r\n            }\r\n        }\r\n    }\r\n\r\n}",
  "sourcePath": "C:/Users/Marvin/source/blockchain/Solidity_Practices/defi_tutorial/src/contracts/TokenFarm.sol",
  "compiler": {
    "name": "solc",
    "version": "0.8.7+commit.e28d00a7.Emscripten.clang"
  },
  "schemaVersion": "3.2.3",
  "updatedAt": "2022-02-13T11:02:41.930Z",
  "networkType": "ethereum",
  "devdoc": {
    "kind": "dev",
    "methods": {},
    "version": 1
  },
  "userdoc": {
    "kind": "user",
    "methods": {},
    "version": 1
  }
}